:020000040800F2
:1000000030080020A1010008271C0008F919000889
:10001000251C0008D1020008E321000800000000B0
:100020000000000000000000000000002B1C000881
:10003000D302000800000000291C00082D1C000845
:10004000BB010008BB010008BB010008BB010008A0
:10005000BB010008BB010008BB010008BB01000890
:10006000BB010008BB010008BB010008BB01000880
:10007000BB010008BB010008BB010008BB01000870
:10008000BB010008BB010008BB010008BB01000860
:10009000BB010008BB010008BB010008BB01000850
:1000A000BB010008BB010008BB010008BB01000840
:1000B000BB010008BB010008BB010008BB01000830
:1000C000BB010008BB010008BB010008BB01000820
:1000D000BB010008BB010008BB010008BB01000810
:1000E000D5020008BB010008BB010008BB010008E5
:1000F000BB010008BB010008BB010008BB010008F0
:10010000000000000000000000000000BB0100082B
:10011000BB010008BB010008C11C0008BB010008AE
:10012000BB010008BB010008BB010008BB010008BF
:10013000BB010008BB010008000000000000000037
:10014000BB010008BB010008BB0100080000000063
:10015000000000000000000000000000000000009F
:100160000000000000000000BB010008BB01000807
:10017000BB010008000000000000000000000000BB
:1001800000000000BB010008DFF810D000F08EF87E
:100190000048004725220008AFF300803008002007
:1001A0000648804706480047FEE7FEE7FEE7FEE711
:1001B000FEE7FEE7FEE7FEE7FEE7FEE7A51C000818
:1001C000890100082DE9F05F0546002092469B4614
:1001D00088460646814640241BE02846414647465D
:1001E000224600F020F853465A46C01A914110D3D7
:1001F00011461846224600F04AF82D1A67EB01080E
:100200004F4622460120002100F041F817EB00097B
:100210004E41201EA4F10104DFDC484631462A4647
:100220004346BDE8F09F202A04DB203A21FA02F081
:100230000021704721FA02F3D040C2F12002914020
:1002400008431946704740EA01039B0703D009E0C1
:1002500008C9121F08C0042AFAD203E011F8013BB2
:1002600000F8013B521EF9D27047D2B201E000F80B
:10027000012B491EFBD270470022F6E710B513464A
:100280000A4604461946FFF7F0FF204610BD202A13
:1002900004DB203A00FA02F1002070479140C2F1DD
:1002A000200320FA03F3194390407047064C074D92
:1002B00006E0E06840F0010394E807009847103436
:1002C000AC42F6D3FFF764FF102300083023000888
:1002D000FEE770474FF4004000F01CB810B5B0F5D1
:1002E000004F10D108490878421C0A7001280AD131
:1002F000282000F03BFA054900204862BDE8104084
:10030000034801F007B910BD0000002000100040B4
:1003100004010020044910B50A68024202D00860B6
:10032000FFF7DCFF10BD0000140401402DE9FC4F75
:10033000DFF894A1002301250AF1040B03244FF0F8
:100340000F0C0BF1040EB8E005FA03F632406FD043
:100350004F68012F05D0022F03D0112F01D0122F8B
:1003600017D1D0F808905F0004FA07F829EA0809C5
:100370000097D1F80C8008FA07F848EA0908C0F895
:1003800008804768B7430E79C6F300169E403E4387
:100390004660C6684FEA430804FA08F7BE4301976F
:1003A0008F6807FA08F73743C7604E68022E01D0FE
:1003B000122E13D1DE0800EB86060096366A5F0720
:1003C000FF0E0CFA07F926EA0906D1F8109009FA8F
:1003D00007F949EA0609009EC6F820900668019FC1
:1003E000BE430F7907F0030707FA08F737430760A2
:1003F0004E68F60060D5354EB76947F00107B76122
:10040000B66923F0030706F001060096304E3E441D
:10041000B146B6689F074FEA17780CFA08F7BE4353
:10042000B0F1904F05D02B4FB84204D1012712E014
:1004300042E000270FE0284FB84201D102270AE02E
:10044000264FB84201D1032705E0254FB84201D11C
:10045000042700E0052707FA08F73743C9F80870B2
:10046000DAF800605746D1F8048096435FEAC8384E
:1004700000D516433E60DBF800605F46D1F804808B
:1004800096435FEA883800D516433E60DEF8006088
:100490007746D1F8048096435FEAC82800D5164312
:1004A0003E60094F0C373E68D1F8048096435FEAFE
:1004B000882800D516433E605B1C0A6832FA03F6B2
:1004C0007FF442AFBDE8FC8F000401400010024001
:1004D000000001400004004800080048000C0048EB
:1004E000001000480069084000D0012070470AB1A0
:1004F00081617047816270470148806870470000E1
:100500000400002090F84120202A24D190F84020B7
:10051000012A20D0012280F84020242280F84120A6
:100520000268136823F0010313600268136823F460
:1005300080531360026813680B43136001680A68F4
:1005400042F001020A60202180F84110002180F869
:100550004010084670470220704790F84120202A3A
:1005600022D190F84020012A1ED0012280F840209C
:10057000242280F841200268136823F001031360ED
:100580000268136823F4706343EA01211160016873
:100590000A6842F001020A60202180F8411000211F
:1005A00080F84010084670470220704770B504007C
:1005B00004D094F84100002510B106E0012070BD80
:1005C00084F84050204600F04DF8242084F8410083
:1005D0002068016821F0010101606068216820F055
:1005E000706008612068816821F400418160E068E2
:1005F0000128A06807D040F4044021688860E068C2
:10060000022803D006E040F40040F6E721684FF4EA
:100610000060486020684168114A114341602068C9
:10062000C16821F40041C160D4E904010843A16913
:1006300040EA01202168C860D4E907010843216825
:1006400008602068016841F00101016065642020B4
:1006500084F84100256384F84250002070BD0000FA
:100660000080000210B586B0044614216846FFF7EA
:1006700003FE1249206888421ED1114C606940F483
:10068000802060616069694600F480200590C02088
:10069000009012200190012002900320039004207A
:1006A00004900848FFF742FEE06940F40010E06162
:1006B000E06900F40010059006B010BD0054004041
:1006C000001002400004004802488168027811448A
:1006D0008160704704000020074810B5016841F0B0
:1006E00010010160032000F07FF8002000F006F800
:1006F00000F024F8002010BD0020024070B50D4D20
:1007000004464FF47A712878B1FBF0F00A49096881
:10071000B1FBF0F000F058FE48B9102C07D20022CF
:100720002146501E00F040F800206C6070BD012092
:1007300070BD000004000020100000200A4882B0B4
:10074000816941F001018161816901F0010100913C
:10075000C16941F08051C161C06900F080500090D2
:10076000072002B000F040B80010024000280DDB66
:1007700000F01F02012191404009800000F1E020BB
:10078000C0F88011BFF34F8FBFF36F8F7047002801
:1007900009DB00F01F02012191404009800000F1B7
:1007A000E020C0F800117047F0B40E4B1B680C46F7
:1007B000C3F30223C3F10705042D00D90425191D35
:1007C000072901D2002300E0DB1E012606FA05F10D
:1007D000491E214099409E40761E16403143F0BC90
:1007E00001F000BD0CED00E0064900F007020868CA
:1007F0004FF6FF03184040EA0220034A1043086006
:10080000704700000CED00E00000FA0570B586B0FE
:10081000040004D094F8A902002518B107E00120D3
:1008200006B070BD84F8A852204600F043F80320BB
:1008300084F8A902206801F0CDFC002001260EE01A
:1008400000EB800104EBC10181F8296001F8280F59
:10085000C881CD700D614D61401CC0B28D61616871
:100860008142EDD8002011E000EB800104EBC101D2
:1008700081F8695181F8680181F86B51C1F87851AC
:10088000C1F87C51401CC0B2C1F8805161688142FE
:10089000EAD8142204F110016846FFF7D4FC94E86A
:1008A0000F0001F08EFC84F8245084F8A962002027
:1008B000B6E7000010B586B0044614216846FFF77D
:1008C000DBFC13492068884220D1124C606940F457
:1008D000003060616069694600F4003005904FF4B3
:1008E000C05000900220019000200290032003904D
:1008F0000E2004904FF09040FFF718FDE06940F49F
:100900000000E061E06900F40000059006B010BD51
:10091000005C0040001002402DE9F84F04460068DA
:10092000804DC0036FD5E8690026C00008D4E8698F
:1009300040F08050E861E869012600F080500090A6
:1009400079480168C90512D40168804641F4807174
:100950000160FFF7D1FD074605E000BFFFF7CCFDC2
:10096000C01B642835D8D8F80000C005F6D5286A21
:1009700010F4407053D0A18801F4407181424ED0F0
:10098000286A4FF4803191FAA1F2B2FA82F297000C
:10099000664A4FF00108174420F44070C7F80084FD
:1009A00091FAA1F1B1FA81F102EB81010023C1F8C2
:1009B00000342862C00732D0FFF79EFD074641F29F
:1009C000883A4FF0020907E0FFF796FDC11B514539
:1009D00002D90320BDE8F88F99FAA9F1B1FA81F1A3
:1009E00041F040014846B8EB511F01D129680CE0A5
:1009F00090FAA0F1B1FA81F141F04001B0EB511F42
:100A000002D1296A01E015E0696A99FAA9F0B0FA01
:100A100080F000F01F0008FA00F21142D4D0286ADA
:100A2000616820F44070084328621EB1E86920F034
:100A30008050E8612078C00705D0286BA16820F0BD
:100A40000300084328632078800705D5286BE168F8
:100A500020F44030084328632078400705D5286BF0
:100A6000216920F44020084328632078800605D5BA
:100A7000286BE16920F01000084328632068800398
:100A800005D56868A16B20F4800008436860207871
:100A9000400605D5286B216A20F020000843286312
:100AA0002078000705D5286B616920F440100843C1
:100AB00028632078C00605D5286BA16920F4400082
:100AC000084328632088800505D56868E16A20F41A
:100AD0000000084368602078000605D5E86A616A6E
:100AE00020F4F8700843E8622088C00505D5E86A5C
:100AF000A16A20F478500843E8622088C00405D534
:100B0000286B216B20F480700843286320888004C0
:100B100005D5286B616B20F4007008432863002022
:100B200058E7000000100240007000400000424200
:100B30002DE9F0470F46050069D04A4E306800F0B5
:100B40000700B84209D2306820F00700384330600F
:100B5000306800F00700B84259D12878424C80072D
:100B600005D56068A96820F0F00008436060287827
:100B7000C0073DD06968012001290DD0022923D08A
:100B80005FF0020393FAA3F2B2FA82F242F020027B
:100B9000520904D0226803E04FF40033F2E7626A9E
:100BA00093FAA3F3B3FA83F303F01F0398400242CE
:100BB0002DD0606820F0030008436060FFF79CFCC4
:100BC000804641F288390CE04FF00073DAE700BF4D
:100BD000FFF792FCA0EB0801494502D90320BDE8CC
:100BE000F0876068696800F00C00B0EB810FEFD10E
:100BF000306800F00700B8420BD9306820F00700D9
:100C000038433060306800F00700B84201D001205E
:100C1000E5E72878400705D56068E96820F4E060DA
:100C2000084360602878000706D56068296920F4C9
:100C3000605040EAC100606000F01EF86168F02278
:100C400092FAA2F201F0F001B2FA82F2D140074A20
:100C5000515CC8400649086006480068FFF74EFD31
:100C60000020BCE7002002400010024000230008E2
:100C70001000002008000020164A10B551681648E0
:100C800001F00C03042B20D0082B1ED14FF470145C
:100C900094FAA4F401F47013B4FA84F4E3400F4C12
:100CA000D26AE45C0F2393FAA3F302F00F02B3FAC3
:100CB00083F3DA40094B1033C9039A5C06D500234D
:100CC0001946FFF77FFAA0FB040110BD0448A4FBFE
:100CD000000110BD0010024000127A00E02200085E
:100CE00000093D002DE9F84F050071D02878FC4E31
:100CF000C0074FF0010425D070686704C0F381007D
:100D0000012807D07068C0F3810002281BD17068E9
:100D1000C00318D597FAA7F0B0FA80F040F0200091
:100D2000400901D0306800E0706A97FAA7F1B1FA83
:100D300081F101F01F0104FA01F1084265D06868F1
:100D40000028D2D061E06868B0F5803F0BD010B1C8
:100D5000B0F5A02F17D0306820F4803030603068B4
:100D600020F4802002E0306840F480303060F06A87
:100D7000A96820F00F000843F062686820B3FFF70D
:100D8000BBFB80460AE0306840F480203060EAE730
:100D9000FFF7B2FBA0EB0800642871D897FAA7F020
:100DA000B0FA80F040F02000400901D0306800E047
:100DB000706A97FAA7F1B1FA81F101F01F0104FA04
:100DC00001F10842E4D020E0FFF796FB804607E0FF
:100DD000C2E000BFFFF790FBA0EB08006428DCD85E
:100DE00097FAA7F0B0FA80F040F02000400901D057
:100DF000306800E0706A97FAA7F1B1FA81F101F06A
:100E00001F0104FA01F10842E4D12878DFF8D48206
:100E100080074FF0000A4FF0020730D570684FF09E
:100E2000F80B10F00C0F07D07068C0F38100022897
:100E300027D17068C00324D497FAA7F0B0FA80F0E5
:100E400040F02000400901D0306800E0706A97FA55
:100E5000A7F1B1FA81F101F01F0104FA01F1084292
:100E600002D02869012877D130689BFAABF220F0D4
:100E7000F8016869B2FA82F29040014331605AE0A9
:100E800064E1286988B394FAA4F0B0FA80F048F8D5
:100E90002040FFF731FB814606E000BFFFF72CFB47
:100EA000A0EB090002289AD897FAA7F0B0FA80F0D0
:100EB00040F02000400901D0306800E0706A97FAE5
:100EC000A7F1B1FA81F101F01F0104FA01F1084222
:100ED000E4D030689BFAABF26969B2FA82F220F092
:100EE000F80091400843306025E0FFE794FAA4F051
:100EF000B0FA80F048F820A0FFF7FEFA814605E03E
:100F0000FFF7FAFAA0EB09000228CCD897FAA7F06D
:100F1000B0FA80F040F02000400901D0306800E0D5
:100F2000706A97FAA7F1B1FA81F101F01F0104FA92
:100F300001F10842E4D1287800076CD5A869A8B36C
:100F400094FAA4F0B0FA80F008EB8000C0F8804476
:100F5000FFF7D2FA814607E0A4E100BFFFF7CCFA21
:100F6000A0EB090002289ED897FAA7F0B0FA80F00B
:100F700040F06000B4EB501F01D130680BE097FAED
:100F8000A7F0B0FA80F040F06000B7EB501F01D13D
:100F9000306A00E0706A97FAA7F1B1FA81F101F0C6
:100FA0001F0104FA01F21042D8D034E0FFE794FAAE
:100FB000A4F1B1FA81F108EB8101C1F880A4FFF737
:100FC0009BFA814606E000BFFFF796FAA0EB090006
:100FD00002289AD897FAA7F0B0FA80F040F06000A3
:100FE000B4EB501F01D130680BE097FAA7F0B0FACC
:100FF00080F040F06000B7EB501F01D1306A00E094
:10100000706A97FAA7F1B1FA81F101F01F0104FAB1
:1010100001F21042D8D12878400768D5F0694FF026
:101020000009C00009D4F06940F08050F061F06917
:101030004FF0010900F0805000902B480168C9056D
:1010400012D4016841F480710160FFF755FA8346BC
:1010500006E000BFFFF750FAA0EB0B00642875D83C
:1010600021480068C005F5D5E86801280AD008B114
:10107000052811D0306A20F001003062306A20F07B
:10108000040002E0306A40F001003062E86868B3B2
:10109000FFF732FA83460DE0306A40F00400306218
:1010A000F0E700BFFFF728FAA0EB0B0141F2883010
:1010B00081424BD897FAA7F0B0FA80F040F0400098
:1010C000B4EB501F01D1306813E097FAA7F0B0FAE3
:1010D00080F040F04000B7EB501F09D1306A08E0C3
:1010E0000010024000004242007000400CE040E06E
:1010F000706A97FAA7F1B1FA81F101F01F0104FAC1
:1011000001F21042CED02DE0FFF7F6F9834607E05A
:10111000FFF7F2F9A0EB0B0141F28830814215D8BC
:1011200097FAA7F0B0FA80F040F04000B4EB501FFF
:1011300001D130680CE097FAA7F0B0FA80F040F0E7
:101140004000B7EB501F02D1306A01E083E0706AC3
:1011500097FAA7F1B1FA81F101F01F0104FA01F247
:101160001042D5D1B9F1000F03D0F06920F08050C2
:10117000F061E86980B37168C1F38101022977D019
:101180004FF080714F000228504609D091FAA1F12A
:10119000B1FA81F148F82100FFF7AEF905465DE0AC
:1011A000894691FAA1F1B1FA81F1C24648F82100CD
:1011B000FFF7A2F9804605E0FFF79EF9A0EB0800D3
:1011C000022848D897FAA7F0B0FA80F040F0200043
:1011D000400902D0306801E066E0706A97FAA7F132
:1011E000B1FA81F101F01F0104FA01F10842E3D1E3
:1011F000D5E908100843716821F474110843706040
:1012000099FAA9F0B0FA80F04AF82040FFF774F993
:10121000054604E0FFF770F9401B02281BD897FA37
:10122000A7F0B0FA80F040F02000400901D030680B
:1012300000E0706A97FAA7F1B1FA81F101F01F019D
:1012400004FA01F10842E5D02EE000BFFFF754F99F
:10125000401B022802D90320BDE8F88F97FAA7F0B7
:10126000B0FA80F040F02000400902D0306801E080
:101270000BE0706A97FAA7F1B1FA81F101F01F0152
:1012800004FA01F10842E1D10EE00128E4D07068CF
:101290002A6A00F48031914204D1696A00F4701026
:1012A000884201D00120D7E70020D5E72DE9F041A1
:1012B000040005D00025A56294F85D0018B107E090
:1012C0000120BDE8F08184F85C50204600F04AF827
:1012D000022384F85D302068016821F0400101603C
:1012E000E0684FF4E066B04201D9002101E04FF41C
:1012F0008051B0F5706F02D0B04200D0A562276B6C
:10130000012227B9B04201D9236300E02263D4E966
:1013100001031843D4E9043633431843238B03F401
:1013200000731843E3691843236A1843A36A1843F8
:1013300023681860636B606AA66918430427E36832
:1013400007EA16463343184308432168486020687B
:10135000C16921F40061C161256684F85D20002027
:10136000AFE7000010B586B0044614216846FEF7CA
:1013700083FF1349206888421FD11248816941F4D4
:1013800080518161816901F480510591416941F485
:10139000003141614069694600F400300590E02069
:1013A000009002200190002002900320039005206D
:1013B00004904FF09040FEF7B9FF06B010BD00005A
:1013C000003001400010024010B5401EB0F1807F97
:1013D00001D3012010BD4FF0E02460610F216017A0
:1013E00000F000FF0020A06107202061002010BD58
:1013F0007047704770470000F0B590F83C20012A14
:1014000036D0012480F83C40022280F83D2002685A
:1014100053689568174E184FB24201D0BA4204D1B2
:1014200023F4700C4B6843EA0C0323F0700C0B6838
:1014300043EA0C0353600268B2420DD0B2F1804F10
:101440000AD00E4B9A4207D00D4B9A4204D0BA42B2
:1014500002D00C4B9A4204D1896825F080031943CD
:10146000916080F83D40002180F83C100846F0BDB6
:101470000220F0BD002C0140003401400004004077
:10148000000800400040014010B5040003D094F86B
:101490003D0010B107E0012010BD002084F83C00A1
:1014A000204600F00DF8022084F83D00211D206840
:1014B00000F064FC012084F83D00002010BD000015
:1014C00008B5114A01681148914208D1C16941F03B
:1014D0000401C161C06900F00400009008BD0C4A1D
:1014E0009142FBD1C16941F01001C161C069002284
:1014F00000F01000009011463620FFF755F9BDE8C6
:1015000008403620FFF743B90008004000100240B1
:10151000001000400168CA6842F00102CA60016818
:101520008868064A1040062806D0B0F5803F03D0F0
:10153000086840F0010008600020704707000100C3
:101540000168CA6822F00102CA600068016A41F2BB
:101550001112114207D1016A9210114203D10168A0
:1015600021F00101016000207047000070B50446C1
:1015700090F83C00012817D0012584F83C50022047
:1015800084F83D00226890682E4B184020F47F407C
:1015900090600868502830D00DDC20284DD005DC44
:1015A00098B310283BD148E0022070BD302844D0C9
:1015B000402834D139E0602828D0702806D0B0F512
:1015C000805F2CD0B0F5005F29D10AE0CB68D1E96B
:1015D0000121206800F037FC2068816841F0770124
:1015E00009E0CB68D1E90121206800F02CFC2068DB
:1015F000816841F48041816011E0CA6849682068CF
:1016000000F0BCFD5021206807E016E0CA68496878
:10161000206800F0C4FD6021206800F01EFC84F802
:101620003D50002084F83C0070BDCA6849682068BD
:1016300000F0A4FD40212068EFE722680146104633
:10164000EBE7000088FFFEFF704770B504460068B6
:1016500001694FF00005C943890715D4C168C94322
:10166000890711D4E91E0161012020772068806973
:101670008007204602D0FFF7E7FF04E000F0D2F831
:10168000204600F080F9257720680169C9434907A1
:1016900017D4C168C943490713D46FF0040101612D
:1016A000022020772068806910F4407F204602D015
:1016B000FFF7CAFF04E000F0B5F8204600F063F938
:1016C000257720680169C943090716D4C168C94351
:1016D000090712D46FF00801016104202077206807
:1016E000C0698007204602D0FFF7AEFF04E000F09B
:1016F00099F8204600F047F9257720680169C94329
:10170000C90617D4C168C943C90613D46FF01001C4
:101710000161082020772068C06910F4407F2046CE
:1017200002D0FFF791FF04E000F07CF8204600F0C3
:101730002AF9257720680169C943C90708D1C1681A
:10174000C943C90704D1891E0161204600F052F93E
:1017500020680169C943090609D4C168C94309065B
:1017600005D46FF0800101612046FFF742FE20683A
:101770000169C943C90509D4C168C943090605D42B
:101780006FF4807101612046FFF732FE2068016925
:10179000C943490609D4C168C943490605D46FF055
:1017A00040010161204600F026F920680169C94323
:1017B00089060BD4C168C943890607D46FF020019C
:1017C00001612046BDE87040FFF714BE70BD000007
:1017D00010B586B0044614216846FEF74DFD0E494B
:1017E0002068884215D10D48416941F4801141615A
:1017F0004069002100F4801005904FF440500090A3
:101800000220CDE90101CDE9031069460448FEF745
:101810008DFD06B010BD0000000800400010024021
:10182000000C0048704770B5044690F83C000D4627
:1018300001280ED0012684F83C60022084F83D0087
:101840000C2A45D007DC5AB1042A1BD0082A78D1CB
:101850002CE0022070BD102A4ED0142A71D15DE018
:10186000206800F003FB2068816941F00801816174
:101870002068816921F004018161206881692A69F9
:10188000114311E0206800F03FFB2068816941F4BA
:10189000006181612068816921F480618161206833
:1018A00081692A6941EA022181614AE0206800F0E9
:1018B00073FB2068C16941F00801C1612068C169FA
:1018C00021F00401C1612068C1692A69114311E056
:1018D000206800F0A9FB2068C16941F40061C16182
:1018E0002068C16921F48061C1612068C1692A69E9
:1018F00041EA0221C16124E0206800F0CFFB2068AA
:10190000416D41F0080141652068416D21F00401FD
:1019100041652068416D2A69114311E0206800F09B
:10192000F5FB2068416D41F4006141652068416D1F
:1019300021F4806141652068416D2A6941EA0221F4
:10194000416584F83D60002084F83C0070BD10B50E
:10195000040003D094F83D0010B107E0012010BD51
:10196000002084F83C00204600F00CF8022084F8A7
:101970003D00211D206800F001FA012084F83D009F
:10198000002010BD7047704710B504460068012262
:1019900000F04CFA1148216881420BD01048814276
:1019A00008D01048814205D00F48814202D00F482C
:1019B000814203D1486C40F400404864206881684B
:1019C0000B4A1140062906D0B1F5803F03D00168CB
:1019D00041F001010160002010BD0000002C014019
:1019E00000340140004001400044014000480140F3
:1019F0000700010070477047FEE70000F0B587B0B0
:101A000014216846FEF738FC3A48416941F4001158
:101A10004161416901F400110591416941F40021DE
:101A20004161416901F400210591416941F480015E
:101A30004161416901F480010591416941F400313E
:101A40004161416901F400310591416941F480210E
:101A50004161416901F480210591416941F480119E
:101A600041614069244E00F480104FF608750590DE
:101A7000002229463046FEF73AFD204F00221F2162
:101A80003846FEF734FD172000901D480024CDE9AC
:101A9000010469463046FEF749FC00950125CDE971
:101AA0000154694630460394FEF740FC1F20009025
:101AB000CDE90154694638460394FEF737FCCDE979
:101AC000005469464FF090400294FEF72FFCE80363
:101AD00000900C48CDE9010469460B48FEF726FC4E
:101AE000002211462820FEF75FFE2820FEF74FFE59
:101AF00007B0F0BD00100240001000480008004888
:101B00000000121000002110000400480E4810B51B
:101B10000C4901600D49416000210122C0E9021217
:101B2000016141618161C1610162FEF73FFD0021F8
:101B30000548FEF7E7FCBDE8104000210248FEF72B
:101B40000CBD000000540040140000200E090020CD
:101B50000E480D494FF4407201604FF482714160AC
:101B60000021C0E902124FF400720161C0E90512C0
:101B70000822C0E9072107234162C0E90A13C0E92E
:101B80000C12FFF793BB0000003001406000002002
:101B900010B58EB000240794089409940A940B940D
:101BA0000C941C2168460D94FEF766FB1C481B49EB
:101BB00001600921C0E901144BF67F31C0E903142B
:101BC0008461FFF761FC4FF48050079007A9144827
:101BD000FFF7CCFC1248FFF7BAFE0B940BA9104894
:101BE0000D94FFF709FC6020009045F6C050CDE948
:101BF000010404200490002269460948FFF713FEFF
:101C000048F6A0400190042269460548FFF70BFE04
:101C10000348FFF7DDFD0EB010BD000000080040D6
:101C2000C4000020FEE7704770477047FEF74CBDC8
:101C300030B59FB028216846FEF71EFB142119A875
:101C4000FEF71AFB3C210AA8FEF716FB03200090C2
:101C50004FF4A0200024CDE90104012004901020BD
:101C6000059002250003CDE9075000010990684660
:101C7000FFF738F80F20CDE919056802CDE91B40C0
:101C8000012119A81D94FEF753FF05480A9040044E
:101C9000189011940AA8FEF73FFE1FB030BD000057
:101CA000200002000548016841F470010160034909
:101CB0004FF00060803908607047000088ED00E058
:101CC00070B5294D294C4FF400462878411C2970E5
:101CD000082807D331462648FEF704FC218840EA4D
:101CE0004100208028780E2838D12248FFF728FCB0
:101CF00020783146204E00F001023046FEF7F7FB17
:101D000020784FF48071C0F340023046FEF7EFFBBD
:101D100020784FF40071C0F380023046FEF7E7FBF5
:101D200020784FF48061C0F3C0023046FEF7DFFB3D
:101D300020784FF40061C0F300123046FEF7D7FB65
:101D400020784FF48051C0F340123046FEF7CFFBAD
:101D50000020287020802820FEF719FDBDE8704083
:101D60000448FFF772BC00000000002002000020C1
:101D70000004004804010020001000482DE9F04351
:101D80000268234B234D244E244C4FF08049984247
:101D900007D0484505D0A84203D0B04201D0A042A8
:101DA00003D122F070074A683A431D4FDFF874C030
:101DB000DFF8748098420DD048450BD0A84209D076
:101DC000B04207D0A04205D0B84203D0604501D050
:101DD000404503D122F44075CA682A434D6922F078
:101DE00080022A4302608A68C2620A68826298425C
:101DF00007D0A04205D0B84203D0604501D040458D
:101E000001D10969016301214161BDE8F08300004E
:101E1000002C014000040040000800400034014054
:101E200000400140004401400048014010B501F06D
:101E30001F030121046A99408C430462016A9A409D
:101E40001143016210BD10B5846842EA032224F4F4
:101E50007F440A432243826010BD826822F07002F0
:101E60000A4342F007018160704700002DE9F0430A
:101E7000026A22F001020262056A436882691C4C10
:101E800025F0020522400C6822F0030214438A6800
:101E9000194E2A43174D194FDFF864C0DFF86490DC
:101EA000A84207D0B04205D0B84203D0604501D067
:101EB000484506D122F00808CA6842EA080222F022
:101EC0000402A84207D0B04205D0B84203D0604512
:101ED00001D0484505D14D6923F440731D438B69FA
:101EE0002B4343608461496841630262BDE8F0832B
:101EF0008FFFFEFF002C01400034014000400140F4
:101F00000044014000480140F0B5026A22F010028E
:101F10000262056A42688369194C1B4E23400C68B3
:101F200023F4407343EA042425F020038D6843EA38
:101F30000513144DA84201D0B04206D1CF6823F05A
:101F4000800343EA071323F04003A8420AD0B042BB
:101F500008D00E4DA84205D00D4DA84202D00D4D1F
:101F6000A84207D14D6922F4406242EA85028D6998
:101F700042EA850242608461496881630362F0BD80
:101F8000FF8FFFFE002C0140003401400040014063
:101F90000044014000480140F0B5026A22F480721A
:101FA0000262056A4368C269194C1B4E22400C68E4
:101FB00022F00302144325F400728D6842EA0522E0
:101FC000144DA84201D0B04206D1CF6822F400627D
:101FD00042EA072222F48062A8420AD0B04208D026
:101FE0000E4DA84205D00E4DA84202D00D4DA8427C
:101FF00007D14D6923F4405343EA05138D6943EA41
:1020000005134360C4614968C1630262F0BD00000A
:102010008FFFFEFF002C01400034014000400140D2
:10202000004401400048014030B5026A22F4805269
:102030000262046A4268C369124D24F400542B40C2
:102040000D6823F4407343EA05238D6844EA0534A0
:102050000D4DA8420BD00D4DA84208D00C4DA84202
:1020600005D00C4DA84202D00B4DA84204D14D69B9
:1020700022F4804242EA85124260C36149680164E9
:10208000046230BDFF8FFFFE002C01400034014090
:1020900000400140004401400048014030B5026A60
:1020A00022F480320262046A4268436D114D2B4073
:1020B0000D681D4324F400330C8943EA04430E4C9D
:1020C000A0420BD00D4CA04208D00D4CA04205D030
:1020D0000C4CA04202D00C4CA04204D14C6922F41A
:1020E000803242EA042242604565496881650362A4
:1020F00030BD00008FFFFEFF002C01400034014086
:1021000000400140004401400048014030B5026AEF
:1021100022F480120262046A4268436D114D24F475
:1021200000142B400D6843EA05230D8944EA055449
:102130000D4DA8420BD00D4DA84208D00C4DA84221
:1021400005D00C4DA84202D00B4DA84204D14D69D8
:1021500022F4802242EA8522426043654968C165D3
:10216000046230BDFF8FFFFE002C014000340140AF
:1021700000400140004401400048014010B5036A9E
:10218000046A24F001040462846924F0F00444EA3F
:10219000021423F00A020A438461026210BD10B5E2
:1021A000036A23F0100303628369046A23F4704313
:1021B00043EA023224F0A00343EA01118261016282
:1021C00010BD012120F8401F002101808180018283
:1021D0000846704730F8401F21F43F41018000203D
:1021E0007047FEE70907090E002804DB00F1E02034
:1021F00080F80014704700F00F0000F1E02080F834
:10220000141D704702E008C8121F08C1002AFAD145
:1022100070477047002001E001C1121F002AFBD166
:10222000704700000EB5FEF757FAFFF701FDFFF704
:10223000E5FBFFF76BFCFFF78BFC264824490024E5
:1022400001600821416002218160846104620161B2
:10225000FEF7DCFA1F480094403801941E490294AE
:1022600001600121C0E901144AF2AF618461C160DB
:10227000FFF70AF917480094694640380294FFF7BF
:10228000BBF8FFF785FC134800218038FFF77CFB83
:10229000104804218038FFF777FB104C00221021F2
:1022A0002046FEF724F9002201212046FEF71FF9FF
:1022B000002202212046FEF71AF9002204212046BE
:1022C000FEF715F9002208212046FEF710F9FEE777
:1022D000005C00404401002000100040000800485D
:1022E00002030405060708090A0B0C0D0E0F101057
:1022F0000102030405060708090A0B0C0D0E0F1056
:1023000000000000000000000102030406070809A5
:102310003023000800000020140000000422000800
:1023200044230008140000201C08000014220008A8
:10233000000000000100000010000000000000008C
:0423400000127A000D
:040000050800018965
:00000001FF
